:020000040000FA
:0400000012EF27F0E4
:100800000000000000DCCFD1350000000000C01562
:100810003F6042A20D70A5EC363BAAB83F4F387638
:100820003F3CAA38338CBEBF350072313F1872315D
:100830003F4CBB31330EEADDB555B38A38610B3618
:10084000BBABAA2A3E42F1533E55326C3E05A38B08
:100850003EABAAAA3EB76DDB3E9A99193F6042A211
:100860000DCAF249710000804B0000803F0000C0BB
:0F0870003F00AAB83FC623F6B80040763F00000D
:1008800088C0B8F189C0B9F18AC0BAF18BC0BBF198
:10089000B8C160F1B9C161F1BAC162F1BBC163F124
:1008A0008CC0B8F18DC0B9F18EC0BAF18FC0BBF168
:1008B000B8C184F1B9C185F1BAC186F1BBC187F174
:1008C000FF0E01016015A86FFF0E6115A96FFF0EE5
:1008D0006215AA6F7F0E6315AB6FFF0E8415986FBC
:1008E000FF0E8515996FFF0E86159A6F7F0E87157F
:1008F0009B6F985199119A119B11D8A482EF04F023
:1009000084EF04F08FEF04F0000E0001886F000EFA
:10091000896F800E8A6F3F0E8B6FB1EF18F0800EDB
:10092000621909E13F0E631960116111D8A49BEFB0
:1009300004F09DEF04F0A8EF04F0000E0001886FB2
:10094000000E896F800E8A6F3F0E8B6FB1EF18F02B
:10095000ABBFB9EF04F0A805000EA959800EAA5943
:100960007F0EAB59D8B0B7EF04F0B9EF04F0CAEF7F
:1009700004F09BBFC8EF04F09805000E9959800E53
:100980009A597F0E9B59D8A0C8EF04F0CAEF04F023
:10099000E6EF04F088C001F089C002F08AC003F0DD
:1009A0008BC004F08CC005F08DC006F08EC007F03F
:1009B0008FC008F012EC1BF001C088F002C089F073
:1009C00003C08AF004C08BF0B1EF18F0000E506F36
:1009D000000E516F000E526F000E536F63BFF5EFA4
:1009E00004F0F3EF04F0A0EF05F09BBF01EF05F07A
:1009F000800E9A5D4B0E9B59D8A001EF05F003EFD6
:100A000005F00DEF05F0020E506F000E516F000E55
:100A1000526F000E536FA0EF05F09BBF19EF05F06A
:100A2000800E9A5D3F0E9B59D8A019EF05F01BEF81
:100A300005F0A0EF05F0170E4B6E98C14CF099C170
:100A40004DF09AC14EF09BC14FF04B662AEF05F076
:100A500032EF05F04F344F324E324D324C324B2E86
:100A600025EF05F0810E4C240101A06FFF0E4D20F3
:100A7000A16FFF0E4E20A26FFF0E4F20A36FA0515B
:100A800017084B6E98C14CF099C14DF09AC14EF0C9
:100A90009BC14FF04B664FEF05F057EF05F04F3419
:100AA0004F324E324D324C324B2E4AEF05F04CC095
:100AB000ACF14DC0ADF14EC0AEF14FC0AFF1010190
:100AC000A05117084B6EACC14CF0ADC14DF0AEC19A
:100AD0004EF0AFC14FF04B2A73EF05F0D8904C3673
:100AE0004D364E364F364B2E6EEF05F098514C1862
:100AF0000DE199514D180AE19A514E1807E19B51A9
:100B00004F18D8A486EF05F088EF05F0A0EF05F0A8
:100B1000010EAC154B6E000EAD154C6E000EAE15F1
:100B20004D6E000EAF154E6E4B500208506F000E0A
:100B30004C54516F000E4D54526F000E4E54536F73
:100B4000800E9A1909E17F0E9B1998119911D8A46A
:100B5000ACEF05F0AEEF05F01AEF06F0800EAA1923
:100B600009E13F0EAB19A811A911D8A4BAEF05F0FD
:100B7000BCEF05F0C7EF05F0000E0001886F000E16
:100B8000896F800E8A6F3F0E8B6FB1EF18F0ABBF8D
:100B9000D6EF05F0A805000EA959800EAA593F0E00
:100BA000AB59D8A0D6EF05F0D8EF05F0F4EF05F07B
:100BB00087BFDFEF05F0DDEF05F0EAEF05F0000E8F
:100BC0000001886F000E896F000E8A6F000E8B6F18
:100BD000B1EF18F08CC088F08DC089F08EC08AF01B
:100BE0008FC08BF0B1EF18F087BFFBEF05F0F9EF86
:100BF00005F00FEF06F08CC001F08DC002F08EC042
:100C000003F08FC004F0AAEC26F001C088F002C007
:100C100089F003C08AF004C08BF0B1EF18F0000E29
:100C20000001886F000E896F000E8A6F000E8B6FB7
:100C3000B1EF18F0800E9A1909E13F0E9B19981137
:100C40009911D8A426EF06F028EF06F055EF06F02C
:100C500087BF2FEF06F02DEF06F04BEF06F0000EEA
:100C6000326E000E336E800E346E3F0E356E88C0CD
:100C700036F089C037F08AC038F08BC039F087EC85
:100C80001FF032C088F033C089F034C08AF035C01C
:100C90008BF0B1EF18F088C088F089C089F08AC065
:100CA0008AF08BC08BF0B1EF18F0400E87198411D9
:100CB00085118611D8A45FEF06F061EF06F07DEF95
:100CC00006F088C011F089C012F08AC013F08BC002
:100CD00014F088C015F089C016F08AC017F08BC0D8
:100CE00018F072EC1DF011C088F012C089F013C02A
:100CF0008AF014C08BF0B1EF18F03F0E8719841101
:100D000085118611D8A487EF06F089EF06F0A4EFCD
:100D100006F063BF8EEF06F090EF06F0A4EF06F04A
:100D200088C03EF089C03FF08AC040F08BC041F0DF
:100D3000B2EC18F03EC088F03FC089F040C08AF0A5
:100D400041C08BF0B1EF18F088C001F089C002F00B
:100D50008AC003F08BC004F0C6EC26F001C070F12D
:100D600002C071F103C072F104C073F1800E010181
:100D7000AA190BE17F0EAB19A811A911D8B4C3EFC2
:100D800006F0C5EF06F0DEEF06F0A851A911AA1192
:100D9000AB11D8B4CEEF06F0D0EF06F0DEEF06F0E0
:100DA000800EAA1909E13F0EAB19A811A911D8A408
:100DB000DCEF06F0DEEF06F099EF07F070C1B4F15A
:100DC00071C1B5F172C1B6F173C1B7F187BFEDEF73
:100DD00006F0EBEF06F007EF07F0000E326E000EA4
:100DE000336E800E346E3F0E356EB4C136F0B5C131
:100DF00037F0B6C138F0B7C139F087EC1FF032C018
:100E0000B4F133C0B5F134C0B6F135C0B7F101016A
:100E100063BF0FEF07F00DEF07F08FEF07F0000E45
:100E2000A8254B6E000EA9214C6E800EAA214D6E96
:100E3000C00EAB214E6E50514B104F6E51514C10A5
:100E4000506E52514D10516E53514E10526E4F50C4
:100E5000501051105210D8A430EF07F032EF07F0C5
:100E600072EF07F0B4C12EF0B5C12FF0B6C130F06B
:100E7000B7C131F0B4C12AF0B5C12BF0B6C12CF026
:100E8000B7C12DF087EC26F02AC032F02BC033F02A
:100E90002CC034F02DC035F0B4C12EF0B5C12FF008
:100EA000B6C130F0B7C131F0B4C12AF0B5C12BF0F2
:100EB000B6C12CF0B7C12DF087EC26F02AC036F071
:100EC0002BC037F02CC038F02DC039F087EC1FF064
:100ED00032C0B4F133C0B5F134C0B6F135C0B7F1AA
:100EE0008FEF07F05005511152115311D8A47BEF29
:100EF00007F07DEF07F08FEF07F0B4C101F0B5C147
:100F000002F0B6C103F0B7C104F0AAEC26F001C0AC
:100F1000B4F102C0B5F103C0B6F104C0B7F1B4C179
:100F200088F0B5C189F0B6C18AF0B7C18BF0B1EFD6
:100F300018F0000E886F000E896F800E8A6F3F0ECA
:100F40008B6F63BFA8EF07F0A6EF07F006EF08F07E
:100F50005051511152115311D8A4B1EF07F0B3EF12
:100F600007F0F3EF07F088C02EF089C02FF08AC099
:100F700030F08BC031F088C02AF089C02BF08AC0D5
:100F80002CF08BC02DF087EC26F02AC032F02BC05D
:100F900033F02CC034F02DC035F088C02EF089C05D
:100FA0002FF08AC030F08BC031F088C02AF089C0A1
:100FB0002BF08AC02CF08BC02DF087EC26F02AC0D5
:100FC00036F02BC037F02CC038F02DC039F087EC4C
:100FD0001FF032C088F033C089F034C08AF035C0C9
:100FE0008BF0B1EF18F05005511152115311D8A4E4
:100FF000FCEF07F0FEEF07F006EF08F0000E886F39
:10100000000E896F800E8A6FBF0E8B6F9BBF15EF2E
:1010100008F09805000E9959000E9A594D0E9B59EB
:10102000D8A015EF08F017EF08F09CEF0AF0ABBF5F
:1010300029EF08F0F80EA85DFF0EA9597F0EAA59F6
:101040003F0EAB59D8B027EF08F029EF08F09CEF1E
:1010500008F087BF2EEF08F030EF08F066EF08F0D9
:10106000600E156E420E166EA20E176E0D0E186EE5
:1010700088C111F089C112F08AC113F08BC114F03C
:1010800072EC1DF011C0A4F112C0A5F113C0A6F1BD
:1010900014C0A7F1A4C111F0A5C112F0A6C113F0AC
:1010A000A7C114F0600E156E420E166EA20E176EDA
:1010B0000D0E186E72EC1DF011C088F012C089F090
:1010C00013C08AF014C08BF0B1EF18F0CA0E156E81
:1010D000F20E166E490E176E710E186E88C111F061
:1010E00089C112F08AC113F08BC114F072EC1DF0AB
:1010F00011C0A4F112C0A5F113C0A6F114C0A7F14C
:10110000A4C111F0A5C112F0A6C113F0A7C114F03B
:10111000CA0E156EF20E166E490E176E710E186E0F
:1011200072EC1DF011C088F012C089F013C08AF073
:1011300014C08BF0B1EF18F0ABBFACEF08F0080EA5
:10114000A85D000EA959800EAA593F0EAB59D8A030
:10115000ACEF08F0AEEF08F029EF09F087BFBDEF64
:1011600008F087518611851106E18405D8B0BBEFE0
:1011700008F0BDEF08F0F3EF08F0600E156E420EB8
:10118000166EA20E176E0D0E186E88C111F089C171
:1011900012F08AC113F08BC114F072EC1DF011C073
:1011A000A4F112C0A5F113C0A6F114C0A7F1A4C107
:1011B00011F0A5C112F0A6C113F0A7C114F0600E82
:1011C000156E420E166EA20E176E0D0E186E72EC94
:1011D0001DF011C088F012C089F013C08AF014C04D
:1011E0008BF0B1EF18F0CA0E156EF20E166E490EA6
:1011F000176E710E186E88C111F089C112F08AC184
:1012000013F08BC114F072EC1DF011C0A4F112C0E8
:10121000A5F113C0A6F114C0A7F1A4C111F0A5C196
:1012200012F0A6C113F0A7C114F0CA0E156EF20E8B
:10123000166E490E176E710E186E72EC1DF011C00D
:1012400088F012C089F013C08AF014C08BF0B1EF9F
:1012500018F070C101F071C102F072C103F073C1E6
:1012600004F0000E056E000E066E800E076EBF0EB7
:10127000086E12EC1BF001C0B0F102C0B1F103C066
:10128000B2F104C0B3F1000E156E000E166E800EA2
:10129000176E3E0E186EB0C111F0B1C112F0B2C19E
:1012A00013F0B3C114F072EC1DF011C02EF012C097
:1012B0002FF013C030F014C031F0AB0E2A6EAA0E1E
:1012C0002B6EAA0E2C6E3E0E2D6E87EC26F02AC0D9
:1012D000A4F12BC0A5F12CC0A6F12DC0A7F1B0C17F
:1012E00015F0B1C116F0B2C117F0B3C118F0B0C11A
:1012F00011F0B1C112F0B2C113F0B3C114F072EC2D
:101300001DF011C054F112C055F113C056F114C0B4
:1013100057F1B0C115F0B1C116F0B2C117F0B3C1A9
:1013200018F0A4C111F0A5C112F0A6C113F0A7C115
:1013300014F072EC1DF011C02EF012C02FF013C08B
:1013400030F014C031F0000E2A6E000E2B6E000E2D
:101350002C6E3F0E2D6E87EC26F02AC048F12BC074
:1013600049F12CC04AF12DC04BF154C111F055C1C7
:1013700012F056C113F057C114F048C115F049C11D
:1013800016F04AC117F04BC118F072EC1DF011C0F5
:1013900044F112C045F113C046F114C047F1B0C189
:1013A00011F0B1C112F0B2C113F0B3C114F0000ECC
:1013B000156EAA0E166EB80E176E3F0E186E72ECF2
:1013C0001DF011C074F112C075F113C076F114C094
:1013D00077F1700E156EA50E166EEC0E176E360EAA
:1013E000186EB0C111F0B1C112F0B2C113F0B3C1A7
:1013F00014F072EC1DF011C02AF012C02BF013C0D3
:101400002CF014C02DF03B0E156EAA0E166EB80E01
:10141000176E3F0E186E44C111F045C112F046C15F
:1014200013F047C114F072EC1DF011C02EF012C081
:101430002FF013C030F014C031F087EC26F02AC032
:1014400078F12BC079F12CC07AF12DC07BF174C1F9
:1014500001F075C102F076C103F077C104F078C1E4
:1014600005F079C106F07AC107F07BC108F012ECF3
:101470001BF001C080F102C081F103C082F104C001
:1014800083F180C1B8F181C1B9F182C1BAF183C1E0
:10149000BBF1B8C190F1B9C191F1BAC192F1BBC130
:1014A00093F1000E01019015B86FF00E9115B96F10
:1014B000FF0E9215BA6FFF0E9315BB6FB8C180F186
:1014C000B9C181F1BAC182F1BBC183F174C12EF0FF
:1014D00075C12FF076C130F077C131F080C12AF0AC
:1014E00081C12BF082C12CF083C12DF087EC26F056
:1014F0002AC094F12BC095F12CC096F12DC097F124
:1015000078C12AF079C12BF07AC12CF07BC12DF083
:1015100094C12EF095C12FF096C130F097C131F0F3
:1015200087EC26F02AC01CF12BC01DF12CC01EF147
:101530002DC01FF1E4EF11F0000E7C6F000E7D6FE7
:10154000000E7E6F000E7F6FABBFB2EF0AF0AB51A3
:1015500007E1800EAA5DD8B0B0EF0AF0B2EF0AF052
:10156000E5EF0AF070C111F071C112F072C113F011
:1015700073C114F0000E156E000E166E800E176EFD
:101580004B0E186E72EC1DF011C070F112C071F1AB
:1015900013C072F114C073F1E80E01017C27FF0E35
:1015A0007D23FF0E7E23FF0E7F2370C1B8F171C132
:1015B000B9F172C1BAF173C1BBF1B8C1A8F1B9C137
:1015C000A9F1BAC1AAF1BBC1ABF1170E4B6EA8C10C
:1015D0004CF0A9C14DF0AAC14EF0ABC14FF04B6623
:1015E000F4EF0AF0FCEF0AF04F344F324E324D3236
:1015F0004C324B2EEFEF0AF0810E4C24506EFF0E52
:101600004D20516EFF0E4E20526EFF0E4F20536E36
:10161000505001017C2751507D2352507E2353505E
:101620007F23FF0EA815AC6FFF0EA915AD6F7F0EBF
:10163000AA15AE6F000EAB15AF6F000EAC11A86F00
:10164000000EAD11A96F800EAE11AA6F3F0EAF1143
:10165000AB6FAFBF3BEF0BF0AF510BE1720EAC5D68
:10166000C40EAD591C0EAE59D8B039EF0BF03BEF9C
:101670000BF045EF0BF0000EA06F000EA16F000EF7
:10168000A26F000EA36F77EF0BF0AFBF57EF0BF019
:10169000AF510BE1D70EAC5DB30EAD595D0EAE5937
:1016A000D8B055EF0BF057EF0BF061EF0BF0010ED8
:1016B000A06F000EA16F000EA26F000EA36F77EF58
:1016C0000BF0000EA06F000EA16F000EA26F000EB7
:1016D000A36F010E7C27000E7D237E237F23000E47
:1016E000A827000EA923800EAA23FF0EAB23A8C1B2
:1016F000B8F1A9C1B9F1AAC1BAF1ABC1BBF1B8C186
:1017000070F1B9C171F1BAC172F1BBC173F170C1AD
:101710002AF071C12BF072C12CF073C12DF0A0C161
:101720004BF0A1C14CF0D8904B364C36D8904B368C
:101730004C36690E4B24F66E080E4C20F76E0900ED
:10174000F5CF2EF00900F5CF2FF00900F5CF30F0DE
:101750000A00F5CF31F087EC26F02AC074F12BC0D7
:1017600075F12CC076F12DC077F1000E326E000EAF
:10177000336E800E346E3F0E356E70C105F071C150
:1017800006F072C107F073C108F0A0C14BF0A1C10F
:101790004CF0D8904B364C36D8904B364C36690EC0
:1017A0004B24F66E080E4C20F76E0900F5CF01F0C1
:1017B0000900F5CF02F00900F5CF03F00A00F5CFDC
:1017C00004F012EC1BF001C036F002C037F003C089
:1017D00038F004C039F087EC1FF032C078F133C024
:1017E00079F134C07AF135C07BF174C111F075C163
:1017F00012F076C113F077C114F078C115F079C1F9
:1018000016F07AC117F07BC118F072EC1DF011C010
:101810005CF112C05DF113C05EF114C05FF15CC1F8
:101820006CF15DC16DF15EC16EF15FC16FF16CC1B4
:10183000B8F16DC1B9F16EC1BAF16FC1BBF1B8C1F8
:1018400090F1B9C191F1BAC192F1BBC193F1000E0F
:1018500001019015B86FF00E9115B96FFF0E92153A
:10186000BA6FFF0E9315BB6FB8C16CF1B9C16DF1C2
:10187000BAC16EF1BBC16FF1A8C14BF0A9C14CF068
:10188000AAC14DF0ABC14EF04E344E324D324C3207
:101890004B32000E4B144F6EF00E4C14506EFF0E78
:1018A0004D14516EFF0E4E14526E000E4F10906F7D
:1018B000000E5010916F000E5110926F200E5210BA
:1018C000936FA0C14BF0A1C14CF0A2C14DF0A3C1D8
:1018D0004EF0150ED8904B364C364D364E36E82E1F
:1018E0006AEF0CF090514B244F6E91514C20506E8A
:1018F00092514D20516E93514E20526E000E4F2446
:10190000B86F000E5020B96F400E5120BA6F000E14
:101910005220BB6FB8C168F1B9C169F1BAC16AF1AF
:10192000BBC16BF1A0C14BF0A1C14CF0D8904B36BC
:101930004C36D8904B364C36690E4B24F66E080E5A
:101940004C20F76E0900F5CF2EF00900F5CF2FF0EF
:101950000900F5CF30F00A00F5CF31F068C12AF068
:1019600069C12BF06AC12CF06BC12DF087EC26F019
:101970002AC094F12BC095F12CC096F12DC097F19F
:1019800070C12AF071C12BF072C12CF073C12DF01F
:1019900094C12EF095C12FF096C130F097C131F06F
:1019A00087EC26F02AC034F12BC035F12CC036F17B
:1019B0002DC037F168C115F069C116F06AC117F082
:1019C0006BC118F06CC111F06DC112F06EC113F053
:1019D0006FC114F072EC1DF011C02EF012C02FF088
:1019E00013C030F014C031F074C12AF075C12BF06F
:1019F00076C12CF077C12DF087EC26F02AC094F147
:101A00002BC095F12CC096F12DC097F134C115F083
:101A100035C116F036C117F037C118F06CC111F09E
:101A20006DC112F06EC113F06FC114F072EC1DF0B5
:101A300011C02EF012C02FF013C030F014C031F0DE
:101A400094C12AF095C12BF096C12CF097C12DF0CE
:101A500087EC26F02AC054F12BC055F12CC056F16A
:101A60002DC057F154C111F055C112F056C113F0F9
:101A700057C114F078C115F079C116F07AC117F08A
:101A80007BC118F072EC1DF011C030F112C031F1C1
:101A900013C032F114C033F15CC111F05DC112F01A
:101AA0005EC113F05FC114F05CC115F05DC116F0AA
:101AB0005EC117F05FC118F072EC1DF011C08CF11F
:101AC00012C08DF113C08EF114C08FF1550E056E4A
:101AD000320E066E6C0E076E3E0E086E420E156ECE
:101AE000F10E166E530E176E3E0E186E8CC111F06D
:101AF0008DC112F08EC113F08FC114F072EC1DF085
:101B000011C001F012C002F013C003F014C004F0C1
:101B100012EC1BF001C0A4F102C0A5F103C0A6F1B4
:101B200004C0A7F1050E056EA30E066E8B0E076EA0
:101B30003E0E086E8CC115F08DC116F08EC117F0E7
:101B40008FC118F0A4C111F0A5C112F0A6C113F005
:101B5000A7C114F072EC1DF011C001F012C002F028
:101B600013C003F014C004F012EC1BF001C054F1D8
:101B700002C055F103C056F104C057F1AB0E056E1B
:101B8000AA0E066EAA0E076E3E0E086E8CC115F0E8
:101B90008DC116F08EC117F08FC118F054C111F02D
:101BA00055C112F056C113F057C114F072EC1DF07C
:101BB00011C001F012C002F013C003F014C004F011
:101BC00012EC1BF001C048F102C049F103C04AF118
:101BD00004C04BF1B70E056E6D0E066EDB0E076E80
:101BE0003E0E086E8CC115F08DC116F08EC117F037
:101BF0008FC118F048C111F049C112F04AC113F069
:101C00004BC114F072EC1DF011C001F012C002F0D3
:101C100013C003F014C004F012EC1BF001C038F143
:101C200002C039F103C03AF104C03BF19A0E056ECF
:101C3000990E066E190E076E3F0E086E8CC115F0D8
:101C40008DC116F08EC117F08FC118F038C111F098
:101C500039C112F03AC113F03BC114F072EC1DF01F
:101C600011C001F012C002F013C003F014C004F060
:101C700012EC1BF001C000F102C001F103C002F13F
:101C800004C003F18CC115F08DC116F08EC117F0A0
:101C90008FC118F08CC111F08DC112F08EC113F0FC
:101CA0008FC114F072EC1DF011C004F112C005F1E7
:101CB00013C006F114C007F100C111F001C112F008
:101CC00002C113F003C114F004C115F005C116F0F0
:101CD00006C117F007C118F072EC1DF011C04CF1ED
:101CE00012C04DF113C04EF114C04FF130C115F0C8
:101CF00031C116F032C117F033C118F05CC105F0E4
:101D00005DC106F05EC107F05FC108F06CC101F073
:101D10006DC102F06EC103F06FC104F012EC1BF054
:101D200001C011F002C012F003C013F004C014F09F
:101D300072EC1DF011C058F112C059F113C05AF1E4
:101D400014C05BF14CC101F04DC102F04EC103F073
:101D50004FC104F058C105F059C106F05AC107F04F
:101D60005BC108F012EC1BF001C04CF102C04DF158
:101D700003C04EF104C04FF16CC111F06DC112F0FF
:101D80006EC113F06FC114F06CC115F06DC116F087
:101D90006EC117F06FC118F072EC1DF011C08CF11C
:101DA00012C08DF113C08EF114C08FF1000E056EBC
:101DB000000E066E400E076E400E086E8CC101F0DC
:101DC0008DC102F08EC103F08FC104F012EC1BF044
:101DD00001C058F102C059F103C05AF104C05BF1CF
:101DE00058C101F059C102F05AC103F05BC104F0BF
:101DF0004CC105F04DC106F04EC107F04FC108F0CF
:101E000012EC1BF001C068F102C069F103C06AF175
:101E100004C06BF168C1B8F169C1B9F16AC1BAF126
:101E20006BC1BBF1B8C190F1B9C191F1BAC192F1E6
:101E3000BBC193F1000E01019015B86FF00E911522
:101E4000B96FFF0E9215BA6FFF0E9315BB6FB8C135
:101E500068F1B9C169F1BAC16AF1BBC16BF1000E99
:101E6000056E000E066E400E076EC00E086E68C14D
:101E700001F069C102F06AC103F06BC104F012EC19
:101E80001BF001C03CF102C03DF103C03EF104C0B3
:101E90003FF18CC12EF08DC12FF08EC130F08FC17B
:101EA00031F03CC12AF03DC12BF03EC12CF03FC1C6
:101EB0002DF087EC26F02AC040F12BC041F12CC058
:101EC00042F12DC043F14CC12AF04DC12BF04EC15F
:101ED0002CF04FC12DF040C12EF041C12FF042C176
:101EE00030F043C131F087EC26F02AC034F12BC02A
:101EF00035F12CC036F12DC037F16CC111F06DC138
:101F000012F06EC113F06FC114F068C115F069C111
:101F100016F06AC117F06BC118F072EC1DF011C019
:101F200074F112C075F113C076F114C077F168C175
:101F300015F069C116F06AC117F06BC118F030C115
:101F400011F031C112F032C113F033C114F072EC50
:101F50001DF011C001F012C002F013C003F014C054
:101F600004F05CC115F05DC116F05EC117F05FC1F1
:101F700018F034C111F035C112F036C113F037C179
:101F800014F072EC1DF011C005F012C006F013C081
:101F900007F014C008F012EC1BF001C078F102C089
:101FA00079F103C07AF104C07BF174C101F075C10D
:101FB00002F076C103F077C104F078C105F079C171
:101FC00006F07AC107F07BC108F012EC1BF001C0EB
:101FD0009CF102C09DF103C09EF104C09FF19CC121
:101FE000B8F19DC1B9F19EC1BAF19FC1BBF1B8C1B1
:101FF00090F1B9C191F1BAC192F1BBC193F1000E58
:1020000001019015B86FF00E9115B96FFF0E921582
:10201000BA6FFF0E9315BB6FB8C19CF1B9C19DF1AA
:10202000BAC19EF1BBC19FF174C12EF075C12FF0F2
:1020300076C130F077C131F09CC12AF09DC12BF000
:102040009EC12CF09FC12DF087EC26F02AC094F1A0
:102050002BC095F12CC096F12DC097F178C12AF0D4
:1020600079C12BF07AC12CF07BC12DF094C12EF0F8
:1020700095C12FF096C130F097C131F087EC26F072
:102080002AC064F12BC065F12CC066F12DC067F148
:102090009CC111F09DC112F09EC113F09FC114F0BC
:1020A000000E156E400E166E760E176E3F0E186EF1
:1020B00072EC1DF011C020F112C021F113C022F109
:1020C00014C023F14F0E156E380E166E760E176E75
:1020D0003F0E186E64C111F065C112F066C113F0B5
:1020E00067C114F072EC1DF011C005F012C006F0CB
:1020F00013C007F014C008F0C60E156E230E166E3E
:10210000F60E176EB80E186E9CC111F09DC112F03C
:102110009EC113F09FC114F072EC1DF011C001F0CC
:1021200012C002F013C003F014C004F012EC1BF054
:1021300001C058F102C059F103C05AF104C05BF16B
:1021400058C101F059C102F05AC103F05BC104F05B
:10215000A0C14BF0A1C14CF0D8904B364C36D89072
:102160004B364C36010E4B24F66E080E4C20F76EA3
:102170000900F5CF05F00900F5CF06F00900F5CF0D
:1021800007F00A00F5CF08F012EC1BF001C024F1B3
:1021900002C025F103C026F104C027F17CC101F083
:1021A0007DC102F07EC103F07FC104F0010EACECF2
:1021B00023F001C0B0F102C0B1F103C0B2F104C01C
:1021C000B3F124C105F025C106F026C107F027C1EF
:1021D00008F020C101F021C102F022C103F023C1A7
:1021E00004F012EC1BF001C058F102C059F103C019
:1021F0005AF104C05BF1A0C14BF0A1C14CF0D890E2
:102200004B364C36D8904B364C36090E4B24F66E76
:10221000080E4C20F76E0900F5CF05F00900F5CF48
:1022200006F00900F5CF07F00A00F5CF08F058C115
:1022300001F059C102F05AC103F05BC104F012EC85
:102240001BF001C008F102C009F103C00AF104C08B
:102250000BF108C101F009C102F00AC103F00BC182
:1022600004F0B0C105F0B1C106F0B2C107F0B3C1CE
:1022700008F012EC1BF001C080F102C081F103C034
:1022800082F104C083F180C1B8F181C1B9F182C18A
:10229000BAF183C1BBF1B8C190F1B9C191F1BAC132
:1022A00092F1BBC193F1000E01019015B86FF00ED1
:1022B0009115B96FFF0E9215BA6FFF0E9315BB6F94
:1022C000B8C180F1B9C181F1BAC182F1BBC183F15A
:1022D000B0C12EF0B1C12FF0B2C130F0B3C131F0B6
:1022E00080C12AF081C12BF082C12CF083C12DF076
:1022F00087EC26F02AC094F12BC095F12CC096F102
:102300002DC097F1A0C14BF0A1C14CF0D8904B3635
:102310004C36D8904B364C36090E4B24F66E080ED0
:102320004C20F76E0900F5CF2EF00900F5CF2FF005
:102330000900F5CF30F00A00F5CF31F094C12AF052
:1023400095C12BF096C12CF097C12DF087EC26F0AB
:102350002AC040F12BC041F12CC042F12DC043F105
:1023600020C12EF021C12FF022C130F023C131F065
:1023700040C12AF041C12BF042C12CF043C12DF0E5
:1023800087EC26F02AC00CF12BC00DF12CC00EF109
:102390002DC00FF124C12AF025C12BF026C12CF04D
:1023A00027C12DF00CC12EF00DC12FF00EC130F061
:1023B0000FC131F087EC26F02AC01CF12BC01DF1B3
:1023C0002CC01EF12DC01FF18CC0B8F18DC0B9F129
:1023D0008EC0BAF18FC0BBF1B8C190F1B9C191F113
:1023E000BAC192F1BBC193F1000E01019015B86F13
:1023F000F00E9115B96FFF0E9215BA6FFF0E93157F
:10240000BB6FB8C128F1B9C129F1BAC12AF1BBC16A
:102410002BF180C115F081C116F082C117F083C184
:1024200018F028C12EF029C12FF02AC130F02BC19D
:1024300031F08CC02AF08DC02BF08EC02CF08FC0F4
:102440002DF087EC26F02AC011F02BC012F02CC022
:1024500013F02DC014F072EC1DF011C010F112C079
:1024600011F113C012F114C013F110C101F011C128
:1024700002F012C103F013C104F01CC115F01DC11C
:1024800016F01EC117F01FC118F08CC011F08DC0DE
:1024900012F08EC013F08FC014F072EC1DF011C05A
:1024A00005F012C006F013C007F014C008F012ECDB
:1024B0001BF001C064F102C065F103C066F104C005
:1024C00067F128C111F029C112F02AC113F02BC104
:1024D00014F080C115F081C116F082C117F083C1DC
:1024E00018F072EC1DF011C09CF112C09DF113C0E8
:1024F0009EF114C09FF164C101F065C102F066C194
:1025000003F067C104F09CC105F09DC106F09EC1B7
:1025100007F09FC108F012EC1BF001C0B4F102C03B
:10252000B5F103C0B6F104C0B7F1B4C1B8F1B5C19B
:10253000B9F1B6C1BAF1B7C1BBF1B8C1ACF1B9C11B
:10254000ADF1BAC1AEF1BBC1AFF10101AFBFB5EFA3
:1025500012F0AC05000EAD59000EAE59430EAF5946
:10256000D8A0B5EF12F0B7EF12F0EDEF12F0CA0EEF
:10257000156EF20E166E490E176E710E186E88C12A
:1025800011F089C112F08AC113F08BC114F072EC02
:102590001DF011C0A4F112C0A5F113C0A6F114C022
:1025A000A7F1A4C111F0A5C112F0A6C113F0A7C1F3
:1025B00014F0CA0E156EF20E166E490E176E710EDD
:1025C000186E72EC1DF011C088F012C089F013C0B3
:1025D0008AF014C08BF0B1EF18F0430EAF19AC11B4
:1025E000AD11AE11D8A4F7EF12F0F9EF12F06CEFC5
:1025F00013F09CC12EF09DC12FF09EC130F09FC101
:1026000031F0B4C12AF0B5C12BF0B6C12CF0B7C17E
:102610002DF087EC26F02AC032F02BC033F02CC00E
:1026200034F02DC035F03C0E056EAA0E066E380E45
:10263000076E330E086E64C101F065C102F066C119
:1026400003F067C104F012EC1BF001C036F002C0C9
:1026500037F003C038F004C039F098EC25F0D8B05A
:1026600034EF13F036EF13F02EEF14F0CA0E156EA0
:10267000F20E166E490E176E710E186E88C111F0AB
:1026800089C112F08AC113F08BC114F072EC1DF0F5
:1026900011C0A4F112C0A5F113C0A6F114C0A7F196
:1026A000A4C111F0A5C112F0A6C113F0A7C114F086
:1026B000CA0E156EF20E166E490E176E710E186E5A
:1026C00072EC1DF011C088F012C089F013C08AF0BE
:1026D00014C08BF0B1EF18F0FF0EAC154B6EFF0E6F
:1026E000AD154C6EFF0EAE154D6E7F0EAF154E6ED6
:1026F0004EBE87EF13F04B04000E4C58160E4D588B
:10270000430E4E58D8A087EF13F089EF13F0BFEFB8
:1027100013F0600E156E420E166EA20E176E0D0EA1
:10272000186E88C111F089C112F08AC113F08BC1F3
:1027300014F072EC1DF011C0A4F112C0A5F113C089
:10274000A6F114C0A7F1A4C111F0A5C112F0A6C151
:1027500013F0A7C114F0600E156E420E166EA20E95
:10276000176E0D0E186E72EC1DF011C088F012C0BD
:1027700089F013C08AF014C08BF0B1EF18F0160E78
:10278000AE1909E1C30EAF19AC11AD11D8A4CBEF4E
:1027900013F0CDEF13F02EEF14F09CC12EF09DC17D
:1027A0002FF09EC130F09FC131F0B4C12AF0B5C105
:1027B0002BF0B6C12CF0B7C12DF087EC26F02AC063
:1027C00032F02BC033F02CC034F02DC035F064C192
:1027D00036F065C137F066C138F067C139F098EC62
:1027E00025F0D8A0F6EF13F0F8EF13F02EEF14F069
:1027F000600E156E420E166EA20E176E0D0E186E3E
:1028000088C111F089C112F08AC113F08BC114F094
:1028100072EC1DF011C0A4F112C0A5F113C0A6F115
:1028200014C0A7F1A4C111F0A5C112F0A6C113F004
:10283000A7C114F0600E156E420E166EA20E176E32
:102840000D0E186E72EC1DF011C088F012C089F0E8
:1028500013C08AF014C08BF0B1EF18F0FF0E010125
:10286000AC152C6FFF0EAD152D6FFF0EAE152E6F34
:102870007F0EAF152F6F170E4B6E2CC14CF02DC174
:102880004DF02EC14EF02FC14FF04B664AEF14F0C1
:1028900052EF14F04F344F324E324D324C324B2EF9
:1028A00045EF14F0810E4C240101A06FFF0E4D2066
:1028B000A16FFF0E4E20A26FFF0E4F20A36F000EE0
:1028C0007C6F000E7D6F000E7E6F000E7F6F2FBF3E
:1028D00076EF14F02C05000E2D59000E2E593F0EE8
:1028E0002F59D8A076EF14F078EF14F058EF15F0C8
:1028F000A0C14BF0010E4B26000E4C6E000E4D6E2B
:10290000800E4E6E000E4F6E4B6689EF14F091EF05
:1029100014F04F344F324E324D324C324B2E84EF46
:1029200014F00101AC514C247C6FAD514D207D6FF2
:10293000AE514E207E6FAF514F207F6F810E4B6E98
:10294000FF0E4C6EFF0E4D6EFF0E4E6E170E4F6E4D
:102950007CC150F07DC151F07EC152F07FC153F077
:102960004F66B5EF14F0BDEF14F0533453325232CA
:10297000513250324F2EB0EF14F050504B24010121
:10298000A06F000E4C20A16F000E4D20A26F000E14
:102990004E20A36FA0C14BF0FF0E4C6EFF0E4D6E8C
:1029A0007F0E4E6E000E4F6E4B66D9EF14F0E1EFC6
:1029B00014F04F344F324E324D324C324B2ED4EF56
:1029C00014F04C1C506E4D1C516E4E1C526E4F1C20
:1029D000536E01017C515014B86F7D515114B96F81
:1029E0007E515214BA6F7F515314BB6FB8C1B0F10E
:1029F000B9C1B1F1BAC1B2F1BBC1B3F1A05117086D
:102A00004B6EFF0E7C154C6EFF0E7D154D6E7F0ECE
:102A10007E154E6E000E7F154F6E000E4C10506EE0
:102A2000000E4D10516E800E4E10526E000E4F1063
:102A3000536E4B661EEF15F026EF15F053345332EC
:102A40005232513250324B2E19EF15F050C07CF1FA
:102A500051C07DF152C07EF153C07FF10101AFBF83
:102A600036EF15F034EF15F03EEF15F07F1F7E1FA7
:102A70007D1F7C6D000E7D237E237F239CC12AF069
:102A80009DC12BF09EC12CF09FC12DF0B0C12EF046
:102A9000B1C12FF0B2C130F0B3C131F087EC26F0F4
:102AA0002AC09CF12BC09DF12CC09EF12DC09FF13E
:102AB00064C101F065C102F066C103F067C104F0B2
:102AC0009CC105F09DC106F09EC107F09FC108F0B2
:102AD00012EC1BF001C0B0F102C0B1F103C0B2F1C1
:102AE00004C0B3F1B0C1B8F1B1C1B9F1B2C1BAF12A
:102AF000B3C1BBF1B8C190F1B9C191F1BAC192F1C2
:102B0000BBC193F1000E01019015B86F800E9115B5
:102B1000B96FFF0E9215BA6FFF0E9315BB6FB8C158
:102B2000B0F1B9C1B1F1BAC1B2F1BBC1B3F1B0C139
:102B300011F0B1C112F0B2C113F0B3C114F0000E24
:102B4000156E720E166E310E176E3F0E186E72EC09
:102B50001DF011C074F112C075F113C076F114C0EC
:102B600077F19CC12EF09DC12FF09EC130F09FC126
:102B700031F0B0C12AF0B1C12BF0B2C12CF0B3C119
:102B80002DF087EC26F02AC094F12BC095F12CC0D3
:102B900096F12DC097F1180E156E720E166E310E4D
:102BA000176E3F0E186E94C12EF095C12FF096C18E
:102BB00030F097C131F064C12AF065C12BF066C1D5
:102BC0002CF067C12DF087EC26F02AC011F02BC045
:102BD00012F02CC013F02DC014F072EC1DF011C0D7
:102BE00014F112C015F113C016F114C017F114C17D
:102BF00001F015C102F016C103F017C104F08C0EEC
:102C0000156EBE0E166EBF0E176E350E186EB0C165
:102C100011F0B1C112F0B2C113F0B3C114F072ECF3
:102C20001DF011C005F012C006F013C007F014C06B
:102C300008F012EC1BF001C078F102C079F103C07A
:102C40007AF104C07BF174C101F075C102F076C164
:102C500003F077C104F078C105F079C106F07AC1BC
:102C600007F07BC108F012EC1BF001C0B4F102C008
:102C7000B5F103C0B6F104C0B7F174C12EF075C14F
:102C80002FF076C130F077C131F0B4C12AF0B5C170
:102C90002BF0B6C12CF0B7C12DF087EC26F02AC07E
:102CA00094F12BC095F12CC096F12DC097F178C10D
:102CB0002AF079C12BF07AC12CF07BC12DF094C1A0
:102CC0002EF095C12FF096C130F097C131F087EC0E
:102CD00026F02AC044F12BC045F12CC046F12DC08E
:102CE00047F1B4C111F0B5C112F0B6C113F0B7C1CC
:102CF00014F0B4C115F0B5C116F0B6C117F0B7C1E4
:102D000018F072EC1DF011C0B0F112C0B1F113C097
:102D1000B2F114C0B3F10E0E056EEA0E066EDD0EB2
:102D2000076EB50E086E4C0E156EBB0E166E310E8C
:102D3000176E330E186EB0C111F0B1C112F0B2C1EE
:102D400013F0B3C114F072EC1DF011C001F012C009
:102D500002F013C003F014C004F012EC1BF001C029
:102D6000A4F102C0A5F103C0A6F104C0A7F1550E5D
:102D7000056EB30E066E8A0E076E380E086EB0C171
:102D800015F0B1C116F0B2C117F0B3C118F0A4C16B
:102D900011F0A5C112F0A6C113F0A7C114F072EC96
:102DA0001DF011C001F012C002F013C003F014C0F6
:102DB00004F012EC1BF001C054F102C055F103C045
:102DC00056F104C057F1610E056E0B0E066E360EFD
:102DD000076EBB0E086EB0C115F0B1C116F0B2C1DE
:102DE00017F0B3C118F054C111F055C112F056C11B
:102DF00013F057C114F072EC1DF011C001F012C0B5
:102E000002F013C003F014C004F012EC1BF001C078
:102E100048F102C049F103C04AF104C04BF1AB0EC6
:102E2000056EAA0E066E2A0E076E3E0E086EB0C123
:102E300015F0B1C116F0B2C117F0B3C118F048C116
:102E400011F049C112F04AC113F04BC114F072ECF9
:102E50001DF011C001F012C002F013C003F014C045
:102E600004F012EC1BF001C038F102C039F103C0CC
:102E70003AF104C03BF1B4C12AF0B5C12BF0B6C1A0
:102E80002CF0B7C12DF0B0C115F0B1C116F0B2C130
:102E900017F0B3C118F038C111F039C112F03AC1BE
:102EA00013F03BC114F072EC1DF011C02EF012C0F3
:102EB0002FF013C030F014C031F087EC26F02AC098
:102EC00080F12BC081F12CC082F12DC083F1000E66
:102ED000056E000E066E000E076EC00E086E80C1F5
:102EE00001F081C102F082C103F083C104F012EC51
:102EF0001BF001C036F002C037F003C038F004C048
:102F000039F080C115F081C116F082C117F083C17C
:102F100018F0B4C111F0B5C112F0B6C113F0B7C1C9
:102F200014F072EC1DF011C032F012C033F013C077
:102F300034F014C035F087EC1FF032C03CF133C0E0
:102F40003DF134C03EF135C03FF144C105F045C10B
:102F500006F046C107F047C108F044C115F045C16D
:102F600016F046C117F047C118F0B4C111F0B5C151
:102F700012F0B6C113F0B7C114F072EC1DF011C01D
:102F800001F012C002F013C003F014C004F012EC00
:102F90001BF001C018F102C019F103C01AF104C0FE
:102FA0001BF13CC12AF03DC12BF03EC12CF03FC1CA
:102FB0002DF018C12EF019C12FF01AC130F01BC12D
:102FC00031F087EC26F02AC04CF12BC04DF12CC01B
:102FD0004EF12DC04FF1B4C12EF0B5C12FF0B6C1E6
:102FE00030F0B7C131F04CC12AF04DC12BF04EC1C9
:102FF0002CF04FC12DF087EC26F02AC094F12BC0A5
:1030000095F12CC096F12DC097F1000E2A6E000E9E
:103010002B6E800E2C6E3F0E2D6E94C12EF095C13E
:103020002FF096C130F097C131F087EC26F02AC01E
:10303000B4F12BC0B5F12CC0B6F12DC0B7F1B4C1BD
:10304000B8F1B5C1B9F1B6C1BAF1B7C1BBF1B8C1F8
:10305000ACF1B9C1ADF1BAC1AEF1BBC1AFF17CC148
:103060004BF07DC14CF07EC14DF07FC14EF0170E8C
:10307000D8904B364C364D364E36E82E38EF18F099
:103080004B500101AC274C50AD234D50AE234E5058
:10309000AF23170E4B6EACC14CF0ADC14DF0AEC1BD
:1030A0004EF0AFC14FF04B6658EF18F060EF18F0DC
:1030B0004F344F324E324D324C324B2E53EF18F0CC
:1030C0004FBE6FEF18F04F504E104D1006E14C04FC
:1030D000D8B06DEF18F06FEF18F087EF18F0B4C1AB
:1030E0002AF0B5C12BF0B6C12CF0B7C12DF07CC1D0
:1030F0002EF07DC12FF092EC22F02AC0B4F12BC04B
:10310000B5F12CC0B6F12DC0B7F197EF18F0ACC1F6
:10311000B8F1ADC1B9F1AEC1BAF1AFC1BBF1B8C13F
:10312000B4F1B9C1B5F1BAC1B6F1BBC1B7F188C14B
:1031300011F089C112F08AC113F08BC114F0B4C12F
:1031400015F0B5C116F0B6C117F0B7C118F072ECA2
:103150001DF011C088F012C089F013C08AF014C0AD
:103160008BF012003EC06CF03FC06DF040C06EF0BE
:1031700041C06FF06CC084F06DC085F06EC086F009
:103180006FC087F0000E00018415426E000E851599
:10319000436E800E8615446E7F0E8715456E800E39
:1031A000441809E17F0E451842104310D8A4DBEF04
:1031B00018F0DDEF18F00BEF19F03EC015F03FC02E
:1031C00016F040C017F041C018F03EC011F03FC0EB
:1031D00012F040C013F041C014F072EC1DF011C0A9
:1031E00001F012C002F013C003F014C004F03EC09E
:1031F00005F03FC006F040C007F041C008F012ECF7
:103200001BF001C03EF002C03FF003C040F004C01C
:1032100041F011EF1BF087BF1AEF19F087518611AB
:10322000851106E18405D8B018EF19F01AEF19F0EE
:1032300056EF19F0FF0E8415426EFF0E8515436E92
:10324000FF0E8615446E7F0E8715456E4250431063
:1032500044104510D8A42FEF19F031EF19F03BEFCF
:1032600019F03EC03EF03FC03FF040C040F041C0CA
:1032700041F011EF1BF087BF42EF19F040EF19F05A
:1032800056EF19F0000E5F6E210E5E6E7D0E016E20
:10329000080E026EF1EC26F001C03EF002C03FF0D5
:1032A00003C040F004C041F011EF1BF0170E426E56
:1032B00084C043F085C044F086C045F087C046F026
:1032C000426665EF19F06DEF19F04634463245322B
:1032D00044324332422E60EF19F043C07CF044C0C8
:1032E0007DF045C07EF046C07FF000017C517D112D
:1032F0007E117F11D8A47FEF19F081EF19F0B1EFA3
:1033000019F0000E686F000E696F000E6A6F000EF4
:103310006B6F96EF19F0D8908437853786378737EB
:10332000010E6827000E69236A236B2386AF9BEF8B
:1033300019F09DEF19F08BEF19F0FF0E6825426E22
:10334000FF0E6921436EFF0E6A21446EFF0E6B2152
:10335000456E42507C5F43507D5B44507E5B4550E0
:103360007F5B810E7C27FF0E7D23FF0E7E23FF0EE9
:103370007F23FF0E8415426EFF0E8515436E7F0E70
:103380008615446E000E8715456E000E4210846F40
:10339000000E4310856F800E4410866F000E45109E
:1033A000876F7CA1D6EF19F0D8EF19F0E0EF19F094
:1033B000845184278551852386518623875187230D
:1033C0007F357F337E337D337C3384518427855131
:1033D00085238651862387518723000E646F000E54
:1033E000656F000E666F000E676F64C070F065C099
:1033F00071F066C072F067C073F0000E806F000E4F
:10340000816F000E826F010E836F4FEF1AF06451CF
:103410008025746F65518121756F66518221766FA9
:1034200067518321776F7451845D75518559765149
:1034300086598751800A426E7751800A4258D8A037
:1034400024EF1AF026EF1AF042EF1AF0745180259B
:10345000646F75518121656F76518221666F775156
:103460008321676F7451845F7551855B7651865BEC
:103470007751875B8051702781517123825172236C
:103480008351732384518427855185238651862354
:1034900087518723D890833382338133803380519F
:1034A000811182118311D8A458EF1AF05AEF1AF043
:1034B00007EF1AF08451851186118711D8B463EF94
:1034C0001AF065EF1AF0C6EF1AF0000E786F000ED2
:1034D000796F800E7A6F3F0E7B6F78C032F079C0C3
:1034E00033F07AC034F07BC035F0000E366E000E3B
:1034F000376E800E386E3F0E396E98EC25F0D8A0EE
:1035000084EF1AF086EF1AF0C6EF1AF0000E0001F1
:10351000786F000E796F800E7A6F3F0E7B6F000E12
:10352000326E000E336E800E346E3F0E356E78C0F4
:1035300036F079C037F07AC038F07BC039F098ECBB
:1035400025F0D8B0A6EF1AF0A8EF1AF0B1EF1AF0F4
:10355000020E00017027000E712372237323C6EF41
:103560001AF0010E00017015426E000E7115436EC7
:10357000000E7215446E000E7315456E4250702792
:1035800043507123445072234550732370C042F05E
:1035900071C043F072C044F073C045F04534453209
:1035A000443243324232000E42240001846F000E46
:1035B0004320856F000E4420866F3F0E4520876FA5
:1035C0007CC042F07DC043F07EC044F07FC045F037
:1035D000170ED8904236433644364536E82EE9EF8A
:1035E0001AF0425084274350852344508623455087
:1035F000872384C06CF085C06DF086C06EF087C0F4
:103600006FF06CC078F06DC079F06EC07AF06FC06A
:103610007BF078C03EF079C03FF07AC040F07BC0CC
:1036200041F012000450800B0D6E045004240F6E04
:1036300003AE1DEF1BF01FEF1BF020EF1BF00F8000
:103640000F50D8B426EF1BF028EF1BF03DEF1BF016
:103650000F28D8A42EEF1BF030EF1BF038EF1BF033
:10366000000E016E000E026E000E036E000E046E60
:10367000038E000E046E45EF1BF0000E016E000E6F
:10368000026E000E036E000E046E0850800B0E6E6C
:103690000D500E18D8B44FEF1BF051EF1BF052EF46
:1036A0001BF00D8C085008240E6E07AE5AEF1BF06D
:1036B0005CEF1BF05DEF1BF00E800E50D8B463EF93
:1036C0001BF065EF1BF07AEF1BF00E28D8A46BEF10
:1036D0001BF06DEF1BF075EF1BF0000E056E000E7A
:1036E000066E000E076E000E086E078E000E086E46
:1036F00082EF1BF0000E056E000E066E000E076EC8
:10370000000E086E0F500E5CD8B089EF1BF08BEFE7
:103710001BF0B2EF1BF00DAC90EF1BF092EF1BF023
:1037200094EF1BF0800E0D1A0FC010F00EC00FF0BA
:1037300010C00EF001C010F005C001F010C005F07F
:1037400002C010F006C002F010C006F003C010F076
:1037500007C003F010C007F004C010F008C004F068
:1037600010C008F0000E106E0F500EC009F00A6A6B
:10377000095E000E0A5A0ABEC7EF1BF00A5009E1A3
:103780001A0E095CD8A0C7EF1BF0C9EF1BF000EFC1
:103790001CF00150021003100410D8A4D2EF1BF04B
:1037A000D5EF1BF0010ED6EF1BF0000E106E000ED1
:1037B000016E000E026E000E036E000E046E0EC04F
:1037C0000FF009EF1CF010A0E8EF1BF0EAEF1BF080
:1037D000F0EF1BF0D89010300109106EF2EF1BF0E3
:1037E000D890103201A0F7EF1BF0F9EF1BF0FAEFC1
:1037F0001BF0108E043404320332023201320F2ADD
:103800000E500F5CD8A007EF1CF009EF1CF0E3EF9F
:103810001BF00DBC0EEF1CF010EF1CF050EF1CF075
:103820000F50D8A416EF1CF018EF1CF022EF1CF07C
:10383000000E016E000E026E000E036E000E046E8E
:1038400071EF1DF005500126065002220750032299
:103850000850042204A02FEF1CF031EF1CF0DDEF24
:103860001CF010A036EF1CF038EF1CF03EEF1CF0FF
:10387000D89010300109106E40EF1CF0D890103233
:1038800001A045EF1CF047EF1CF048EF1CF0108E34
:10389000043404320332023201320F2ADDEF1CF00D
:1038A0000550015C06500258075003580450800A26
:1038B000096E0850800A0958D8B061EF1CF063EF18
:1038C0001CF08EEF1CF00150055C096E025006588A
:1038D0000A6E035007580B6E045008580C6EFF0E0A
:1038E0000924016EFF0E0A20026EFF0E0B20036EEC
:1038F000FF0E0C20046E800E0D1A106C1050D8A410
:1039000084EF1CF086EF1CF096EF1CF0010E0126F0
:10391000000E02220322042296EF1CF00550015EE5
:103920000650025A0750035A0850045A0150021018
:1039300003100410D8A49FEF1CF0A1EF1CF0D6EFE9
:103940001CF01050D8A4A7EF1CF0A9EF1CF0D6EF84
:103950001CF0000E016E000E026E000E036E000ED3
:10396000046E71EF1DF0D89001360236033604362E
:1039700010AEBDEF1CF0BFEF1CF0C0EF1CF00180DB
:1039800010A0C5EF1CF0C7EF1CF0CBEF1CF0D880E7
:103990001036CDEF1CF0D89010360F50D8B4D3EFBE
:1039A0001CF0D5EF1CF0D6EF1CF00F0603AEDBEFDA
:1039B0001CF0DDEF1CF0B3EF1CF0000E0E6E10AE2D
:1039C000E4EF1CF0E6EF1CF0FEEF1CF010C009F075
:1039D0007F0E0916D8B4EFEF1CF0F1EF1CF0F5EFF5
:1039E0001CF0010E0E6EFEEF1CF001A0FAEF1CF0B1
:1039F000FCEF1CF0FEEF1CF0F1EF1CF00E50D8B401
:103A000004EF1DF006EF1DF031EF1DF0010E012651
:103A1000000E02220322042204A011EF1DF013EF76
:103A20001DF031EF1DF001C009F002C00AF003C023
:103A30000BF004C00CF00C340C320B320A32093299
:103A400009C001F00AC002F00BC003F00CC004F082
:103A50000F28D8B42EEF1DF030EF1DF031EF1DF020
:103A60000F2A0F28D8B437EF1DF039EF1DF041EFC2
:103A70001DF00F50D8A43FEF1DF041EF1DF053EFA4
:103A80001DF0000E016E000E026E000E036E000EA1
:103A9000046E0F50D8A44FEF1DF051EF1DF053EFFF
:103AA0001DF0000E0D6E0FA058EF1DF05AEF1DF027
:103AB0005DEF1DF0038E5EEF1DF0039ED8900F307A
:103AC000046E0DAE66EF1DF068EF1DF069EF1DF09E
:103AD000048E01C001F002C002F003C003F004C074
:103AE00004F012001450800B1D6E14501424236E29
:103AF00013AE7DEF1DF07FEF1DF080EF1DF02380F2
:103B00002350D8B486EF1DF088EF1DF09BEF1DF019
:103B10002328D8A48EEF1DF090EF1DF098EF1DF034
:103B2000000E116E000E126E000E136E000E146E5B
:103B3000138EA3EF1DF0000E116E000E126E000E1C
:103B4000136E000E146E1850800B1D1A1850182496
:103B5000226E17AEAEEF1DF0B0EF1DF0B1EF1DF00D
:103B600022802250D8B4B7EF1DF0B9EF1DF0CCEF92
:103B70001DF02228D8A4BFEF1DF0C1EF1DF0C9EF42
:103B80001DF0000E156E000E166E000E176E000E64
:103B9000186E178ED4EF1DF0000E156E000E166E07
:103BA000000E176E000E186E2250D8B4DAEF1DF01A
:103BB000DCEF1DF0E4EF1DF02350D8A4E2EF1DF080
:103BC000E4EF1DF0EEEF1DF0000E116E000E126E10
:103BD000000E136E000E146E86EF1FF017501102C8
:103BE000F3CF28F0F4CF29F028501E6E1F6A206A08
:103BF000216A2950246E256A266A276A1650120205
:103C0000F3CF28F0F4CF29F028501E26000E1F22F3
:103C10002022212229502426000E25222622272276
:103C200015501302F3CF28F0F4CF29F028501E26A8
:103C3000000E1F222022212229502426000E252298
:103C40002622272220C021F01FC020F01EC01FF016
:103C50001E6A15501202F3CF28F0F4CF29F0285035
:103C60001E2629501F22000E2022000E212216504F
:103C70001102F3CF28F0F4CF29F028501E26295046
:103C80001F22000E2022000E212220C021F01FC082
:103C900020F01EC01FF01E6A15501102F3CF28F04D
:103CA000F4CF29F028501E2629501F22000E202272
:103CB000000E212217501202F3CF28F0F4CF29F082
:103CC0002850242629502522000E2622000E2722C5
:103CD00016501302F3CF28F0F4CF29F028502426F1
:103CE00029502522000E2622000E272217501302EB
:103CF000F3CF28F0F4CF29F02850196E29501A6E0E
:103D00001B6A1C6A1BC01CF01AC01BF019C01AF0F9
:103D1000196A195024261A5025221B5026221C509D
:103D200027221EC019F01FC01AF020C01BF021C0AE
:103D30001CF0190EA1EF1EF0D8901C321B321A3263
:103D40001932E82E9CEF1EF0195024261A50252215
:103D50001B5026221C50272220C021F01FC020F01B
:103D60001EC01FF01E6A225023C019F01A6A1926BD
:103D7000000E1A22820E1924286EFF0E1A20296EB8
:103D8000D7EF1EF0D890243625362636273621AEBA
:103D9000CCEF1EF0CEEF1EF0CFEF1EF02480D890B7
:103DA0001E361F36203621362806D8A0290626AE14
:103DB000DCEF1EF0DEEF1EF0C2EF1EF0000E226EF2
:103DC00021AEE5EF1EF0E7EF1EF00BEF1FF0FF0E48
:103DD0001E14196EFF0E1F141A6EFF0E20141B6E98
:103DE0007F0E21141C6E19501A101B101C10D8B411
:103DF000FCEF1EF0FEEF1EF002EF1FF0010E226E30
:103E00000BEF1FF024A007EF1FF009EF1FF00BEFDF
:103E10001FF0FEEF1EF02250D8B411EF1FF013EF89
:103E20001FF037EF1FF0010E2426000E2522262258
:103E3000272227A01EEF1FF020EF1FF037EF1FF003
:103E400024C019F025C01AF026C01BF027C01CF0B2
:103E50001C341C321B321A32193219C024F01AC019
:103E600025F01BC026F01CC027F0284A292A29BEAD
:103E700042EF1FF0295008E12828D8A042EF1FF098
:103E800044EF1FF04EEF1FF0000E246E000E256E63
:103E9000800E266E7F0E276E7CEF1FF029BE5BEF33
:103EA0001FF0295006E12804D8B059EF1FF05BEF4E
:103EB0001FF067EF1FF0000E246E000E256E000E3F
:103EC000266E000E276E000E1D6E7CEF1FF028C0C0
:103ED00023F0FF0E2416FF0E25167F0E2616000E69
:103EE000271623A076EF1FF078EF1FF079EF1FF071
:103EF000268ED8902330276E1D50271224C011F033
:103F000025C012F026C013F027C014F0120035505F
:103F1000800B426E35503524496E34AE92EF1FF05F
:103F200094EF1FF095EF1FF049804950D8B49BEFF4
:103F30001FF09DEF1FF0B2EF1FF04928D8A4A3EFA8
:103F40001FF0A5EF1FF0ADEF1FF0000E326E000E58
:103F5000336E000E346E000E356E348E000E356EEC
:103F6000BAEF1FF0000E326E000E336E000E346E8C
:103F7000000E356E3950800B421A395039244A6E82
:103F800038AEC5EF1FF0C7EF1FF0C8EF1FF04A8033
:103F90004A50D8B4CEEF1FF0D0EF1FF0E5EF1FF07E
:103FA0004A28D8A4D6EF1FF0D8EF1FF0E0EF1FF09B
:103FB000000E366E000E376E000E386E000E396E33
:103FC000388E000E396EEDEF1FF0000E366E000ECB
:103FD000376E000E386E000E396E365037103810BE
:103FE0003910D8A4F6EF1FF0F8EF1FF010EF20F013
:103FF000000E326E000E336E000E346E000E356E03
:10400000800E34127F0E35124250351232C032F01B
:1040100033C033F034C034F035C035F053EF21F005
:104020004950D8A416EF20F018EF20F022EF20F02E
:10403000000E326E000E336E000E346E000E356EC2
:1040400053EF21F04A5049C03AF03B6A3A5E000E05
:104050003B5A7F0E3A24436E000E3B20446E32C022
:104060003EF033C03FF034C040F035C041F0000EA8
:10407000326E000E336E000E346E000E356E000E82
:10408000456E000E466E000E476E000E486E000E26
:104090004A6E83EF20F04A50D8B451EF20F053EF2E
:1040A00020F06AEF20F0D8903E363F364036413659
:1040B000D890323633363436353648AE62EF20F09B
:1040C00064EF20F065EF20F03280D8904536463618
:1040D0004736483636503E5C37503F583850405887
:1040E00039504158D8A077EF20F079EF20F082EFD7
:1040F00020F0488C36503E5E37503F5A3850405A78
:104100003950415A4A2A190E4A6489EF20F08BEF40
:1041100020F04BEF20F03E503F1040104110D8B43B
:1041200094EF20F096EF20F0AEEF20F04580AEEF58
:1041300020F0D890323633363436353648AEA3EFD9
:1041400020F0A5EF20F0A6EF20F03280D890453681
:104150004636473648364306D8A0440634AEB3EF59
:1041600020F0B5EF20F099EF20F0000E4A6E48AE37
:10417000BCEF20F0BEEF20F0E2EF20F0FF0E451480
:104180003A6EFF0E46143B6EFF0E47143C6E7F0ED8
:1041900048143D6E3A503B103C103D10D8B4D3EF5C
:1041A00020F0D5EF20F0D9EF20F0010E4A6EE2EFBB
:1041B00020F032A0DEEF20F0E0EF20F0E2EF20F080
:1041C000D5EF20F04A50D8B4E8EF20F0EAEF20F025
:1041D0000EEF21F0010E3226000E3322342235225A
:1041E00035A0F5EF20F0F7EF20F00EEF21F032C010
:1041F0003AF033C03BF034C03CF035C03DF03D34C4
:104200003D323C323B323A323AC032F03BC033F0BE
:104210003CC034F03DC035F0434A442A44BE19EF57
:1042200021F0445008E14328D8A019EF21F01BEFFA
:1042300021F026EF21F0000E446E4368000E326E2E
:10424000000E336E000E346E000E356E44BE33EF3A
:1042500021F0445006E14304D8B031EF21F033EFB0
:1042600021F041EF21F0000E446E000E436E000E6F
:10427000326E000E336E000E346E000E356E000E80
:10428000426E43C049F049A048EF21F04AEF21F0C7
:104290004DEF21F0348E4EEF21F0349ED89049300E
:1042A000356E04EF20F01200899089828984898616
:1042B000340E016EF20EE82EFED7012EFCD780B828
:1042C00064EF21F066EF21F070EF21F0340E016E03
:1042D000F20EE82EFED7012EFCD7010E91EF22F050
:1042E00080BA75EF21F077EF21F081EF21F0340EE5
:1042F000016EF20EE82EFED7012EFCD7020E91EFD2
:1043000022F080BC86EF21F088EF21F092EF21F0BF
:10431000340E016EF20EE82EFED7012EFCD7030EEE
:1043200091EF22F080BE97EF21F099EF21F0A3EFFB
:1043300021F0340E016EF20EE82EFED7012EFCD7CE
:104340000A0E91EF22F08980899289848986340E41
:10435000016EF20EE82EFED7012EFCD780B8B3EF27
:1043600021F0B5EF21F0BFEF21F0340E016EF20E17
:10437000E82EFED7012EFCD7040E91EF22F080BA72
:10438000C4EF21F0C6EF21F0D0EF21F0340E016E22
:10439000F20EE82EFED7012EFCD7050E91EF22F08B
:1043A00080BCD5EF21F0D7EF21F0E1EF21F0340E02
:1043B000016EF20EE82EFED7012EFCD7060E91EF0D
:1043C00022F080BEE6EF21F0E8EF21F0F2EF21F0DD
:1043D000340E016EF20EE82EFED7012EFCD70B0E26
:1043E00091EF22F08980898289948986340E016E4A
:1043F000F20EE82EFED7012EFCD780B802EF22F095
:1044000004EF22F00EEF22F0340E016EF20EE82ED1
:10441000FED7012EFCD7070E91EF22F080BA13EFE2
:1044200022F015EF22F01FEF22F0340E016EF20E93
:10443000E82EFED7012EFCD7080E91EF22F080BCAB
:1044400024EF22F026EF22F030EF22F0340E016E3E
:10445000F20EE82EFED7012EFCD7090E91EF22F0C6
:1044600080BE35EF22F037EF22F041EF22F0340E1C
:10447000016EF20EE82EFED7012EFCD70C0E91EF46
:1044800022F08980898289848996340E016EF20E29
:10449000E82EFED7012EFCD780B851EF22F053EF63
:1044A00022F05DEF22F0340E016EF20EE82EFED700
:1044B000012EFCD70E0E91EF22F080BA62EF22F0AF
:1044C00064EF22F06EEF22F0340E016EF20EE82E51
:1044D000FED7012EFCD7000E91EF22F080BC73EFC7
:1044E00022F075EF22F07FEF22F0340E016EF20E13
:1044F000E82EFED7012EFCD70F0E91EF22F080BEE2
:1045000084EF22F086EF22F090EF22F0340E016E5D
:10451000F20EE82EFED7012EFCD70D0E91EF22F001
:10452000780E12002AC038F02BC039F02CC03AF0B7
:104530002DC03BF02FBEA6EF22F02F5009E1800ED8
:104540002E5CD8A0A6EF22F0A8EF22F006EF23F011
:1045500038C011F039C012F03AC013F03BC014F06B
:10456000000E156E000E166E000E176E7F0E186E82
:1045700072EC1DF011C038F012C039F013C03AF0DF
:1045800014C03BF0810E2E26FF0E2F222FBED2EF3D
:1045900022F02F5009E1800E2E5CD8A0D2EF22F03D
:1045A000D4EF22F070EF23F038C011F039C012F0D0
:1045B0003AC013F03BC014F0000E156E000E166EDC
:1045C000000E176E7F0E186E72EC1DF011C038F0E1
:1045D00012C039F013C03AF014C03BF0810E2E2601
:1045E000FF0E2F222FBEFEEF22F02F5009E1800E8A
:1045F0002E5CD8A0FEEF22F000EF23F070EF23F046
:10460000000E2F6E7F0E2E6E70EF23F02FAE12EF86
:1046100023F0820E2E5CFF0E2F58D8B012EF23F03D
:1046200014EF23F070EF23F038C011F039C012F00E
:104630003AC013F03BC014F0000E156E000E166E5B
:10464000800E176E0C0E186E72EC1DF011C038F053
:1046500012C039F013C03AF014C03BF0660E2E269B
:10466000000E2F222FAE3EEF23F0820E2E5CFF0EA7
:104670002F58D8B03EEF23F040EF23F070EF23F037
:1046800038C011F039C012F03AC013F03BC014F03A
:10469000000E156E000E166E800E176E0C0E186E44
:1046A00072EC1DF011C038F012C039F013C03AF0AE
:1046B00014C03BF0660E2E26000E2F222FAE6AEF9E
:1046C00023F0820E2E5CFF0E2F58D8B06AEF23F035
:1046D0006CEF23F070EF23F0FF0E2F6E820E2E6E24
:1046E0007F0E2E24306E000E2F20316E326A336A18
:1046F000170ED8903036313632363336E82E79EF11
:1047000023F030C034F031C035F032C036F033C061
:1047100037F034C011F035C012F036C013F037C096
:1047200014F038C015F039C016F03AC017F03BC08D
:1047300018F072EC1DF011C02AF012C02BF013C05B
:104740002CF014C02DF02AC02AF02BC02BF02CC066
:104750002CF02DC02DF01200096E0950D8B4B3EF23
:1047600023F0B5EF23F0D7EF23F004BEBCEF23F026
:10477000BAEF23F0D7EF23F001C005F002C006F036
:1047800003C007F004C008F0051E061E071E081E21
:10479000052A000E06220722082205C00BF006C0DB
:1047A0000CF007C00DF008C00EF0DFEF23F001C0E1
:1047B0000BF002C00CF003C00DF004C00EF001506D
:1047C000021003100410D8A4E8EF23F0EAEF23F05E
:1047D000F4EF23F0000E016E000E026E000E036E69
:1047E000000E046E85EF24F0960E0A6EFEEF23F0A5
:1047F0000A2AD8900E320D320C320B32000E0B14F6
:10480000056E000E0C14066E000E0D14076EFE0EE3
:104810000E14086E0550061007100810D8A413EFE8
:1048200024F015EF24F0F8EF23F023EF24F00A2A08
:10483000010E0B26000E0C220D220E22D8900E32F5
:104840000D320C320B32000E0B14056E000E0C14E0
:10485000066E000E0D14076EFF0E0E14086E055046
:10486000061007100810D8A438EF24F03AEF24F00F
:1048700017EF24F042EF24F00A06D8900B360C36DE
:104880000D360E360DBE47EF24F049EF24F051EF00
:1048900024F0020E0A604FEF24F051EF24F03CEFB9
:1048A00024F00AB056EF24F058EF24F059EF24F02A
:1048B0000D9ED8900A320AC005F0066A076A086A97
:1048C00005C008F0076A066A056A05500B12065013
:1048D0000C1207500D1208500E120950D8B473EF85
:1048E00024F075EF24F07DEF24F004BE7CEF24F07B
:1048F0007AEF24F07DEF24F00E8E0BC001F00CC097
:1049000002F00DC003F00EC004F01200036EC9EFF8
:1049100024F03F0E046E12EF25F0060E046E12EF27
:1049200025F05B0E046E12EF25F04F0E046E12EFB1
:1049300025F0660E046E12EF25F06D0E046E12EF78
:1049400025F07D0E046E12EF25F0070E046E12EFB7
:1049500025F07F0E046E12EF25F0670E046E12EF45
:1049600025F0770E046E12EF25F07C0E046E12EF28
:1049700025F0580E046E12EF25F05E0E046E12EF55
:1049800025F0790E046E12EF25F0710E046E12EF11
:1049900025F00350016E026A0250000AD8B4D3EF2A
:1049A00024F0C5EF24F00150000AD8B489EF24F0B8
:1049B000010AD8B48DEF24F0030AD8B491EF24F0A3
:1049C000010AD8B495EF24F0070AD8B499EF24F07F
:1049D000010AD8B49DEF24F0030AD8B4A1EF24F063
:1049E000010AD8B4A5EF24F00F0AD8B4A9EF24F037
:1049F000010AD8B4ADEF24F0030AD8B4B1EF24F023
:104A0000010AD8B4B5EF24F0070AD8B4B9EF24F0FE
:104A1000010AD8B4BDEF24F0030AD8B4C1EF24F0E2
:104A2000C5EF24F004501200000192359335596E01
:104A30005950D8A41EEF25F020EF25F02AEF25F0DD
:104A4000000E906F000E916F000E926F000E936F2C
:104A500097EF25F090C054F091C055F092C056F0F9
:104A600093C057F0200E3AEF25F0D89057325632C7
:104A700055325432E82E35EF25F05450586E928F4F
:104A8000FF0E9017FF0E9117FF0E9217000E93174F
:104A9000960E595E59BE51EF25F04FEF25F067EFA6
:104AA00025F05950800A970FD8B059EF25F05BEFE9
:104AB00025F05DEF25F020EF25F0D8909333923369
:104AC00091339033593E5DEF25F07FEF25F01F0EB7
:104AD00059646DEF25F06FEF25F077EF25F020EFAB
:104AE00025F0D8909037913792379337590659501F
:104AF000D8A47DEF25F07FEF25F071EF25F0585019
:104B0000D8B485EF25F087EF25F08FEF25F0931FC0
:104B1000921F911F906D000E91239223932390C0BA
:104B200090F091C091F092C092F093C093F0120077
:104B3000000E32143A6E000E33143B6E800E3414A5
:104B40003C6E7F0E35143D6E3A503B103C103D10CC
:104B5000D8A4ADEF25F0AFEF25F0B7EF25F0000EAC
:104B6000326E000E336E000E346E000E356E000E87
:104B700036143A6E000E37143B6E800E38143C6EBD
:104B80007F0E39143D6E3A503B103C103D10D8A4B6
:104B9000CCEF25F0CEEF25F0D6EF25F0000E366EE7
:104BA000000E376E000E386E000E396E35AEDBEF3C
:104BB00025F0DDEF25F0E6EF25F0326C331ED8B09E
:104BC000332A341ED8B0342A800E355639AEEBEF76
:104BD00025F0EDEF25F0F6EF25F0366C371ED8B056
:104BE000372A381ED8B0382A800E3956000E321AAD
:104BF000000E331A000E341A800E351A000E361AC3
:104C0000000E371A000E381A800E391A3650325CF0
:104C1000375033583850345839503558D8B013EFCE
:104C200026F015EF26F018EF26F0D89019EF26F0B1
:104C3000D8801200000E0001A16FA151016E026A1E
:104C4000036A046A000EACEC23F001C098F002C0C5
:104C500099F003C09AF004C09BF098C08CF099C002
:104C60008DF09AC08EF09BC08FF0000E0001886F0F
:104C7000000E896F000E8A6F400E8B6F40EC04F0BF
:104C800088C090F089C091F08AC092F08BC093F0F8
:104C900014EC25F090C09CF091C09DF000019C1D8B
:104CA0005A6E9D1D5B6E0F0E5A149E6F9F6B9EC0B9
:104CB0008AFFA151080DF35094C05AF095C05BF0E3
:104CC00096C05CF097C05DF0E82A6CEF26F0D890B3
:104CD0005D325C325B325A32E82E67EF26F05A5072
:104CE000A06FA05186EC24F08C6E340E5A6EF20E3A
:104CF000E82EFED75A2EFCD70001A12B030EA1658A
:104D000084EF26F086EF26F01DEF26F01200000E4D
:104D10002E1A000E2F1A000E301A800E311A2AC0D9
:104D200001F02BC002F02CC003F02DC004F02EC007
:104D300005F02FC006F030C007F031C008F012ECCB
:104D40001BF001C02AF002C02BF003C02CF004C0FD
:104D50002DF012000150021003100410D8B4B3EF6C
:104D600026F0B5EF26F0BDEF26F0000E011A000E7A
:104D7000021A000E031A800E041A01C001F002C0CC
:104D800002F003C003F004C004F01200A5C005F057
:104D9000A6C006F0A7C007F0A8C008F001C005F043
:104DA00002C006F003C007F004C008F0089E05C06A
:104DB00001F006C002F007C003F008C004F01200C2
:104DC00002EC27F054EC21F00001A46FA451946F81
:104DD000956B966B976B1AEC26F0E2EF26F000EFDE
:104DE00000F0FF0E056EFF0E066EFF0E076E7F0EC3
:104DF000086E05C001F006C002F007C003F008C04D
:104E000004F01200000E0F015B6FF00E926E000EA8
:104E10005C6F000E936E000E5E6F000E956E740E4A
:104E2000D36E12000001A86BA76BA66BA56B5F6A1F
:0C4E30005E6A000EF86E0001E0EF26F054
:020000040020DA
:08000000FFFFFFFFFFFFFFFF00
:020000040030CA
:0E00000002285F3CFFD185FF0FC00FE00F40CC
:00000001FF
