:020000040000FA
:04000000CAEF3FF014
:107F94000001F0EF3FF0016E8B948B928B8000F028
:107FA40001C08CFF00F08B901200016E8B848B92C9
:107FB4008B8001C08CFF00F000F08B901200000E4B
:107FC4008B6E949094949492380ECDEC3FF00F0EF7
:107FD400CDEC3FF0010ECDEC3FF01200760ED36EE7
:107FE400000E956E8B948B928B90E1EC3FF0410EDA
:0C7FF400D7EC3FF0F9EF3FF000EF00F099
:020000040020DA
:08000000FFFFFFFFFFFFFFFF00
:020000040030CA
:0E00000002285F3CFFD185FF0FC00FE00F40CC
:00000001FF
