:020000040000FA
:0400000077EF3FF067
:107EEE000001C9EF3FF0016E8B948B928B8000F0F6
:107EFE0001C08CFF00F08B901200036E8B848B926E
:107F0E008B8003C08CFF00F000F08B90030E026E8E
:107F1E008A0E016E560EE82EFED7012EFCD7022ECB
:107F2E00FAD71200000E8B6E949094949492380EA1
:107F3E007AEC3FF0030E036E8A0E026E560EE82E9A
:107F4E00FED7022EFCD7032EFAD70F0E7AEC3FF097
:107F5E00030E036E8A0E026E560EE82EFED7022E0A
:107F6E00FCD7032EFAD7010E7AEC3FF0030E036E08
:107F7E008A0E026E560EE82EFED7022EFCD7032E68
:107F8E00FAD71200740ED36E000E956E8B948B92F0
:107F9E008B9099EC3FF04C0E84EC3FF0610E84EC2C
:107FAE003FF0620E84EC3FF06F0E84EC3FF0720EE9
:107FBE0084EC3FF0610E84EC3FF0740E84EC3FF0E5
:107FCE006F0E84EC3FF0720E84EC3FF0690E84EC81
:107FDE003FF06F0E84EC3FF0200E84EC3FF0640E09
:107FEE0084EC3FF0650E84EC3FF0FCEF3FF000EFC9
:027FFE0000F091
:020000040020DA
:08000000FFFFFFFFFFFFFFFF00
:020000040030CA
:0E00000002285F3CFFD185FF0FC00FE00F40CC
:00000001FF
